:100000000C9462000C947F000C947F000C947F0091
:100010000C947F000C947F000C947F000C941E04C1
:100020000C947F000C947F000C947F000C947F0054
:100030000C947F000C947F000C947F000C947F0044
:100040000C94D4030C947F000C947F000C947F00DC
:100050000C947F000C947F000C947F000C947F0024
:100060000C947F000C947F00000000002400270007
:100070002A000000000023002600290000000008DC
:10008000000201000003040700000000000000005F
:10009000010204081020408001020408102001021F
:1000A0000408102000000000250028002B00040494
:1000B0000404040404040202020202020303030310
:1000C0000303020011241FBECFEFD8E0DEBFCDBF77
:1000D00011E0A0E0B1E0E4ECFEE002C005900D927A
:1000E000AE31B107D9F722E0AEE1B1E001C01D9217
:1000F000A230B207E1F70E947A040C9460070C94D6
:100100000000833081F028F4813099F08230A9F02A
:1001100008958730A9F08830C9F08430B1F4809117
:1001200080008F7D03C0809180008F778093800056
:10013000089584B58F7784BD089584B58F7DFBCFF6
:100140008091B0008F778093B00008958091B000C7
:100150008F7DF9CFCF93DF93282F30E0F901E4585A
:10016000FF4F8491F901E057FF4FD491F901E25517
:10017000FF4FC491CC23A1F081110E948100EC2F8C
:10018000F0E0EE0FFF1FEE58FF4FA591B491EC91F8
:10019000ED2381E090E009F480E0DF91CF910895B4
:1001A00080E090E0FACF1F93CF93DF93282F30E0C9
:1001B000F901E458FF4F8491F901E057FF4FD491C2
:1001C000F901E255FF4FC491CC23A9F0162F8111FC
:1001D0000E948100EC2FF0E0EE0FFF1FEC55FF4F67
:1001E000A591B4918FB7F894EC91111108C0D095F6
:1001F000DE23DC938FBFDF91CF911F910895DE2B1B
:10020000F8CFCF93DF9390E0FC01E057FF4F2491AC
:1002100082559F4FFC0184918823D1F090E0880F94
:10022000991FFC01E859FF4FA591B491FC01EC55D1
:10023000FF4FC591D491623071F49FB7F8943C910F
:10024000822F809583238C93E8812E2B28839FBF58
:10025000DF91CF9108958FB7F894EC912E2B2C93CA
:100260008FBFF6CF8F929F92AF92BF92CF92DF92C5
:10027000EF92FF92CF936C0180910001883069F07A
:100280008F3F09F470C0CF91FF90EF90DF90CF9037
:10029000BF90AF909F908F900895E2ECF0E0C491F2
:1002A000C7FDF1CF61E088E00E940101CC2319F085
:1002B000C23009F022C1F12CE12C60E072E18AE742
:1002C00090E0A70196010E94FD0649015A01DA015A
:1002D000C9010197A109B1098F3F9105A105B10598
:1002E00009F00CF4EEC060E472E48FE090E0A70146
:1002F00096010E94FD062150310941095109C23081
:1003000009F0A0C082E02F3F31054105510509F0F9
:100310000CF488C160E970ED83E090E0A7019601DC
:100320000E94FD06215031094109510983E02F3F08
:1003300031054105510509F00CF474C168E478EE0B
:1003400081E090E0A70196010E94FD06215031094D
:10035000410951092F3F31054105510511F00CF0BC
:100360008FC084E05FC188E080930001E2ECF0E0A0
:10037000C491CF3F09F487CFC13021F150F0C23092
:1003800009F43EC0C7FD7FCF61E088E00E94010113
:100390008FCF14BC15BC84B5826084BD85B58160E7
:1003A00085BDE6EBF0E0E491F0E0EE0FFF1FEC55C9
:1003B000FF4F85919491E8E9F0E0E491E093F50135
:1003C000C0E070CF10928000109281008091810077
:1003D000886080938100809181008160809381009A
:1003E000E6EBF0E0E491F0E0EE0FFF1FEC55FF4F7D
:1003F00085919491E8E9F0E0E491E093F40152CF23
:100400001092B0001092B1008091B0008260809391
:10041000B0008091B10081608093B100E6EBF0E024
:10042000E491F0E0EE0FFF1FEC55FF4F85919491A2
:100430009093F3018093F201E8E9F0E0E491E09316
:10044000F10130CF2F3F31054105510509F00CF482
:1004500052C068E478EE81E090E0A70196010E9426
:10046000FD062150310941095109CC2309F4AFC0DF
:100470002F3F31054105510511F00CF0B0C071CF8F
:1004800064E274EF80E090E0A70196010E94FD060F
:10049000215031094109510985E02F3F31054105BE
:1004A000510509F008F4BEC062E17AE780E090E00F
:1004B000A70196010E94FD06215031094109510909
:1004C0009CC09C0181E0C111ADC095B5987F892B7E
:1004D00085BD27BD8FEF9FEFDC018093FE019093D8
:1004E000FF01A0930002B093010280916E00826030
:1004F00080936E00C8CE82E0E6CFF12CE12C60E064
:1005000072E18AE790E0A70196010E94FD06215062
:1005100031094109510991E02115310581E0480770
:1005200051056CF068E478EE81E090E0A701960157
:100530000E94FD06215031094109510993E0C13063
:1005400009F076C080918100887F892B809381009B
:1005500030938900209388008FEF9FEFDC01809318
:10056000FA019093FB01A093FC01B093FD018091EF
:100570006F00826080936F0086CE2093B3008FEF70
:100580009FEFDC018093F6019093F701A093F801AF
:10059000B093F9018091700082608093700073CEF7
:1005A00084E02F3F31054105510509F008F48DCF56
:1005B0009AE0B594A794979487949A95D1F7A5015A
:1005C0009401215031094109510985E07ECF83E032
:1005D0002F3F31054105510509F00CF476CF62E15A
:1005E0007AE780E090E0A70196010E94FD06215085
:1005F000310941095109CC2399F286E02F3F310599
:100600004105510579F070F08AE0B594A79497946C
:1006100087948A95D1F7A5019401215031094109A8
:10062000510987E09091B100987F892B8093B100A8
:10063000C13009F48DCFC23009F49FCFC11123CE50
:1006400048CF3FB7F8948091ED019091EE01A091D1
:10065000EF01B091F00126B5A89B05C02F3F19F01E
:100660000196A11DB11D3FBFBA2FA92F982F882732
:10067000BC01CD01620F711D811D911D42E0660F0D
:10068000771F881F991F4A95D1F708958F929F92DF
:10069000AF92BF92CF92DF92EF92FF926B017C01FB
:1006A0000E9421034B015C01C114D104E104F10457
:1006B000B9F00E942103681979098A099B09683EEB
:1006C00073408105910580F321E0C21AD108E10849
:1006D000F10888EE880E83E0981EA11CB11CE4CFBF
:1006E000FF90EF90DF90CF90BF90AF909F908F9052
:1006F00008959091000189130BC0E2ECF0E0E491C1
:100700009FEF90930001E13049F028F0E23061F072
:1007100060E00C94D30010926E00FACF90916F00BD
:100720009D7F90936F00F4CF909170009D7F909388
:10073000700091E09093B0009091B100987F946028
:100740009093B1001092B300E3CFFF920F931F93E9
:10075000CF93DF938B01EC01CC0FDD1FFE01EB5E2D
:10076000FE4FF08061E08F2D0E94D300CB5FDE4F03
:10077000888199810E943201B801110F880B990B71
:100780000E94460360E08F2D0E94D30088E00E9403
:10079000790364E670E080E090E0DF91CF911F91F3
:1007A0000F91FF900C9446031F920F920FB60F9279
:1007B00011242F933F938F939F93AF93BF93809177
:1007C000E9019091EA01A091EB01B091EC01309127
:1007D000E80123E0230F2D3758F50196A11DB11D27
:1007E0002093E8018093E9019093EA01A093EB0143
:1007F000B093EC018091ED019091EE01A091EF0199
:10080000B091F0010196A11DB11D8093ED0190936F
:10081000EE01A093EF01B093F001BF91AF919F91D2
:100820008F913F912F910F900FBE0F901F901895B1
:1008300026E8230F0296A11DB11DD2CF1F920F9261
:100840000FB60F9211242F933F934F935F936F93A3
:100850007F938F939F93AF93BF93EF93FF93809179
:10086000F6019091F701A091F801B091F901892B5F
:100870008A2B8B2BD1F19091F101E091F201F09153
:10088000F3018081892780838091F6019091F7019F
:10089000A091F801B091F901181619061A061B0665
:1008A0009CF48091F6019091F701A091F801B0912C
:1008B000F9010197A109B1098093F6019093F7011D
:1008C000A093F801B093F901FF91EF91BF91AF911F
:1008D0009F918F917F916F915F914F913F912F9158
:1008E0000F900FBE0F901F901895809100010E94ED
:1008F0007903EACFCF93DF9300D01F92CDB7DEB755
:10090000789484B5826084BD84B5816084BD85B5EA
:10091000826085BD85B5816085BD80916E008160F6
:1009200080936E001092810080918100826080939C
:10093000810080918100816080938100809180009E
:100940008160809380008091B10084608093B100C9
:100950008091B00081608093B00080917A008460C3
:1009600080937A0080917A00826080937A008091EF
:100970007A00816080937A0080917A008068809309
:100980007A001092C10025E131E03B832A836DE1BA
:10099000E62E61E0F62E0DE011E0EA81FB81808118
:1009A0003296FB83EA8361E00E940101F8018081B5
:1009B0000E5F1F4F62E00E9401012A813B81E21617
:1009C000F30659F761E088E00E94010180E480931A
:1009D0007C0080917A00806480937A0080917A0014
:1009E00086FDFCCF6091780070917900072E000C95
:1009F000880B990B611571058105910511F00E9415
:100A0000F40661E089E00E94D30061E08AE00E9480
:100A1000D30061E08BE00E94D30061E08CE00E9493
:100A2000D3008BE092E00E94320164EF71E080E03D
:100A300090E00E94460388E00E94790360E089E02C
:100A40000E94D30060E08AE00E94D30060E08BE067
:100A50000E94D30060E08CE00E94D30064EF71E05C
:100A600080E090E00E94460344E0442E512C612C2B
:100A7000712C50E0252E50E0352E0E94A506E09006
:100A8000E601F090E701F701EE0FFF1FE25EFE4F77
:100A9000FB83EA83A30192010E94FD06EA81FB81A8
:100AA0007183608364EF71E080E090E00E94460310
:100AB0003EE1C32E31E0D32E86011B821A822A81A9
:100AC0003B81E216F3067CF060E971E0F801819168
:100AD00091918F010E94A5032A813B812F5F3F4F97
:100AE0003B832A83ECCF10E000E08091E6019091F7
:100AF000E7019B838A8380179107D4F561E089E041
:100B00000E94D30061E08AE00E94D30061E08BE0A4
:100B10000E94D30061E08CE00E94D3006CE271E09F
:100B200080E090E00E94460360E089E00E94D300EC
:100B300060E08AE00E94D30060E08BE00E94D30076
:100B400060E08CE00E94D300EA81FB813196F09353
:100B5000E701E093E60160E273E080E090E00E944C
:100B600046032114310409F488CF0E94000085CF88
:100B70008FB7F8948090E9019090EA01A090EB0182
:100B8000B090EC018FBF2FB7F8948091E90190915C
:100B9000EA01A091EB01B091EC012FBF88199909EE
:100BA000AA09BB09883B9B40A105B10508F079C0A3
:100BB0008DE0E82E81E0F82E1B821A82F701F08189
:100BC000F98322E0E20EF11C8F2F0E94AA00892BEC
:100BD00009F05EC068EC70E08A819B810E94A503E9
:100BE00089810E94AA00892BD9F362E370E080E03A
:100BF00090E00E944603F601819191916F012A8154
:100C00003B818217930709F451C084E090E09B83F5
:100C10008A8361E089E00E94D30061E08AE00E945B
:100C2000D30061E08BE00E94D30061E08CE00E9481
:100C3000D30086E990E00E94320168EC70E080E029
:100C400090E00E94460360E089E00E94D30060E0EB
:100C50008AE00E94D30060E08BE00E94D30060E055
:100C60008CE00E94D30088E00E94790368EC70E079
:100C700080E090E00E944603EA81FB813197FB838C
:100C8000EA83EF2B31F61092E7011092E60169CF6B
:100C90008A819B8101969B838A83049709F08ECF7A
:100CA00072CFEFEFFFEFFB83EA83A5CF0F5F1F4FFC
:100CB0001CCF8F929F92AF92BF92CF92DF92EF9212
:100CC000FF92CF93DF93EC01688179818A819B81C8
:100CD000611571058105910521F464E279ED8BE5DB
:100CE00097E02DE133EF41E050E00E94FD0649011D
:100CF0005A019B01AC01A7EAB1E40E941C076B01F9
:100D00007C01ACEEB4EFA50194010E942A07C60E47
:100D1000D71EE81EF91EF7FE06C081E0C81AD108EA
:100D2000E10880E8F80AC882D982EA82FB82C7011A
:100D3000B6019F77DF91CF91FF90EF90DF90CF903A
:100D4000BF90AF909F908F9008958F929F92AF9297
:100D5000BF92CF92DF92EF92FF926091010170916A
:100D600002018091030190910401611571058105D3
:100D7000910521F464E279ED8BE597E02DE133EF05
:100D800041E050E00E94FD0649015A019B01AC017F
:100D9000A7EAB1E40E941C076B017C01ACEEB4EF42
:100DA000A50194010E942A07C60ED71EE81EF91E4F
:100DB000F7FE06C081E0C81AD108E10880E8F80A09
:100DC000C0920101D0920201E0920301F09204016D
:100DD000C701B6019F77FF90EF90DF90CF90BF9053
:100DE000AF909F908F9008956093010170930201DE
:100DF00080930301909304010895052E97FB1EF440
:100E000000940E94140757FD07D00E942F0707FC8B
:100E100003D04EF40C9414075095409530952195CD
:100E20003F4F4F4F5F4F0895909580957095619516
:100E30007F4F8F4F9F4F08950E945107A59F900DA0
:100E4000B49F900DA49F800D911D11240895B7FFAC
:100E50000C941C070E941C07821B930B0895A1E2AF
:100E60001A2EAA1BBB1BFD010DC0AA1FBB1FEE1F24
:100E7000FF1FA217B307E407F50720F0A21BB30B6F
:100E8000E40BF50B661F771F881F991F1A9469F7EB
:100E900060957095809590959B01AC01BD01CF0147
:100EA0000895A29FB001B39FC001A39F700D811D43
:100EB0001124911DB29F700D811D1124911D089563
:040EC000F894FFCFD4
:100EC400FF0100000006014A0188010B020300052E
:0E0ED4000006000D0009000A000B000C0000D3
:00000001FF
