:100000000C945D000C9485000C9485000C94850084
:100010000C9485000C9485000C9485000C9485004C
:100020000C9485000C9485000C9485000C9485003C
:100030000C9485000C9485000C9485000C9485002C
:100040000C94A8020C9485000C9418030C94F202F2
:100050000C9485000C9485000C9485000C9485000C
:100060000C9485000C9485000000000024002700FB
:100070002A0000000000250028002B0004040404CE
:100080000404040402020202020203030303030342
:10009000010204081020408001020408102001021F
:1000A00004081020000000080002010000030407FB
:1000B0000000000000000000660411241FBECFEF06
:1000C000D8E0DEBFCDBF11E0A0E0B1E0EAE7F9E0A3
:1000D00002C005900D92A432B107D9F721E0A4E245
:1000E000B1E001C01D92AA3CB207E1F710E0CDE5F6
:1000F000D0E004C02197FE010E94B504CC35D107A1
:10010000C9F70E944A030C94BB040C94000090E0D1
:10011000FC01EC55FF4F2491FC01E057FF4F349157
:10012000FC01E458FF4FE491EE23C9F0222339F09B
:10013000233001F1A8F4213019F1223029F1F0E047
:10014000EE0FFF1FEE58FF4FA591B4918FB7F894B3
:10015000EC91611126C030953E233C938FBF0895EA
:100160002730A9F02830C9F0243049F78091800069
:100170008F7D03C0809180008F7780938000DFCFD8
:1001800084B58F7784BDDBCF84B58F7DFBCF809125
:10019000B0008F778093B000D2CF8091B0008F7D78
:1001A000F9CF3E2BDACFCF93DF9390E0FC01E057FD
:1001B000FF4F249184589F4FFC0184918823D1F0F4
:1001C00090E0880F991FFC01E859FF4FA591B49169
:1001D000FC01EE58FF4FC591D49161110EC09FB73D
:1001E000F8948C91E22FE0958E238C932881E22362
:1001F000E8839FBFDF91CF9108958FB7F894EC917A
:10020000E22BEC938FBFF6CF3FB7F8948091290192
:1002100090912A01A0912B01B0912C0126B5A89BA9
:1002200005C02F3F19F00196A11DB11D3FBFBA2F88
:10023000A92F982F8827BC01CD01620F711D811D48
:10024000911D42E0660F771F881F991F4A95D1F7CD
:100250000895AF92BF92CF92DF92EF92FF920F93E9
:100260001F93CF93DF936C017B018B01040F151F4C
:10027000EB015E01AE18BF08C017D10759F06991B4
:10028000D601ED91FC910190F081E02DC601099518
:10029000892B79F7C501DF91CF911F910F91FF90C5
:1002A000EF90DF90CF90BF90AF900895FC01538DF9
:1002B000448D252F30E0842F90E0821B930B541740
:1002C00010F0CF96089501970895FC01918D828DCD
:1002D000981761F0A28DAE0FBF2FB11D5D968C9166
:1002E000928D9F5F9F73928F90E008958FEF9FEFA5
:1002F0000895FC01918D828D981731F0828DE80F61
:10030000F11D858D90E008958FEF9FEF0895FC011A
:10031000918D228D892F90E0805C9F4F821B9109E7
:100320008F73992708958DE291E00E94870121E063
:10033000892B09F420E0822F089580E090E0892B3A
:1003400029F00E94930181110C9400000895FC0192
:10035000A48DA80FB92FB11DA35ABF4F2C91848D26
:1003600090E001968F739927848FA689B7892C9383
:10037000A089B1898C91837080648C93938D848DD6
:10038000981306C00288F389E02D80818F7D8083D9
:100390000895EF92FF920F931F93CF93DF93EC0199
:1003A00081E0888F9B8D8C8D98131AC0E889F9891C
:1003B000808185FF15C09FB7F894EE89FF8960831F
:1003C000E889F98980818370806480839FBF81E0A0
:1003D00090E0DF91CF911F910F91FF90EF900895E2
:1003E000F62E0B8D10E00F5F1F4F0F731127E02EBD
:1003F0008C8D8E110CC00FB607FCFACFE889F989F5
:10040000808185FFF5CFCE010E94A701F1CFEB8D52
:10041000EC0FFD2FF11DE35AFF4FF0829FB7F894C8
:100420000B8FEA89FB8980818062CFCFCF93DF93E6
:10043000EC01888D8823B9F0AA89BB89E889F989FC
:100440008C9185FD03C0808186FD0DC00FB607FC31
:10045000F7CF8C9185FFF2CF808185FFEDCFCE0164
:100460000E94A701E9CFDF91CF910895FC0101908F
:100470000020E9F73197AF01481B590BBC018DE211
:1004800091E00C9429018F929F92AF92BF920F93AB
:100490001F93CF93DF93CDB7DEB7A1970FB6F89434
:1004A000DEBF0FBECDBF19A2423008F44AE08E0174
:1004B0000F5D1F4F842E912CB12CA12CA50194010E
:1004C0000E949304E62FB901CA01EA30F4F4E05D1A
:1004D000D801EE938D01232B242B252B79F790E067
:1004E00080E0109719F0CD010E943602A1960FB658
:1004F000F894DEBF0FBECDBFDF91CF911F910F915A
:10050000BF90AF909F908F900895E95CE1CFCF921C
:10051000DF92EF92FF92CF93DF936B017C016DE24C
:100520008DE291E00E94C901EC0166277727CB019B
:100530006C197D098E099F094AE00E9443028C0FC5
:100540009D1FDF91CF91FF90EF90DF90CF900895A6
:100550001F920F920FB60F9211242F933F938F93F8
:100560009F93AF93BF938091250190912601A09115
:100570002701B09128013091240123E0230F2D376A
:1005800058F50196A11DB11D2093240180932501EA
:1005900090932601A0932701B0932801809129010F
:1005A00090912A01A0912B01B0912C010196A11DDF
:1005B000B11D8093290190932A01A0932B01B09340
:1005C0002C01BF91AF919F918F913F912F910F90EF
:1005D0000FBE0F901F90189526E8230F0296A11DBD
:1005E000B11DD2CF1F920F920FB60F9211242F93ED
:1005F0003F934F935F936F937F938F939F93AF93AB
:10060000BF93EF93FF938DE291E00E94A701FF91CA
:10061000EF91BF91AF919F918F917F916F915F917A
:100620004F913F912F910F900FBE0F901F901895F3
:100630001F920F920FB60F9211242F938F939F93B7
:10064000EF93FF93E0913D01F0913E018081E091B5
:100650004301F091440182FD1BC0908180914601CD
:100660008F5F8F7320914701821741F0E09146011F
:10067000F0E0E35DFE4F958F80934601FF91EF918F
:100680009F918F912F910F900FBE0F901F901895F3
:100690008081F4CF789484B5826084BD84B5816014
:1006A00084BD85B5826085BD85B5816085BD80913D
:1006B0006E00816080936E001092810080918100B5
:1006C00082608093810080918100816080938100AD
:1006D000809180008160809380008091B10084606F
:1006E0008093B1008091B00081608093B0008091D0
:1006F0007A00846080937A0080917A00826080938F
:100700007A0080917A00816080937A0080917A00EB
:10071000806880937A001092C10060E081E10E94BD
:10072000D30061E08CE00E94D30061E08BE00E9486
:10073000D30061E08AE00E94D300E0913D01F09196
:100740003E0182E08083E0913901F0913A0110820C
:10075000E0913B01F0913C018FEC808310924501C8
:10076000E0914101F091420186E08083E0913F01F8
:10077000F0914001808180618083E0913F01F091A0
:100780004001808188608083E0913F01F0914001C9
:10079000808180688083E0913F01F09140018081F9
:1007A0008F7D808313E4C0E0D0E010937C008091C3
:1007B0007A00806480937A0080917A0086FDFCCF75
:1007C000A0907800B090790082E191E00E9436021A
:1007D00065010B2C000CEE08FF08F7FE57C0C7019F
:1007E000B6010E9487028BE191E00E9436028EE101
:1007F00091E00E943602F7FE4FC0C701B6010E9489
:1008000087028BE191E00E9436022CE2A21621E0E1
:10081000B2060CF047C061E08CE00E94870060E007
:100820008BE00E94870060E08AE00E9487000E94BF
:1008300004014B015C0184E6C82ED12CE12CF12C83
:100840000E940401681979098A099B09683E73406E
:1008500081059105A8F321E0C21AD108E108F10849
:1008600088EE880E83E0981EA11CB11CC114D1042F
:10087000E104F10429F7209709F497CF0E9493012E
:10088000882309F492CF0E9400008FCF4AE0C7016D
:10089000B6010E944302A7CF4AE0C701B6010E94F9
:1008A0004302AFCF60E08CEBA81682E0B8062CF4D0
:1008B0008CE00E94870061E0B3CF8CE00E9487004B
:1008C00060E08BE00E94870061E0AECFEDE2F1E0F6
:1008D0001382128288EE93E0A0E0B0E084839583D7
:1008E000A683B78384E091E09183808385EC90E0D8
:1008F0009587848784EC90E09787868780EC90E0EA
:10090000918B808B81EC90E0938B828B82EC90E0DA
:10091000958B848B86EC90E0978B868B118E128E54
:10092000138E148E0895A1E21A2EAA1BBB1BFD0183
:100930000DC0AA1FBB1FEE1FFF1FA217B307E407BE
:10094000F50720F0A21BB30BE40BF50B661F771F16
:10095000881F991F1A9469F76095709580959095F6
:100960009B01AC01BD01CF010895EE0FFF1F059063
:0A097000F491E02D0994F894FFCFF4
:10097A0000000000C901290156011602870165011C
:10098A00790156616C6F72653A20000D0A00706F2A
:04099A00743A0000AB
:00000001FF
