:100000000C9461000C9473000C9473000C947300B6
:100010000C9473000C9473000C9473000C94730094
:100020000C9473000C9473000C9473000C94730084
:100030000C9473000C9473000C9473000C94730074
:100040000C94E7000C9473000C9473000C947300F0
:100050000C9473000C9473000C9473000C94730054
:100060000C9473000C94730000000000240027001F
:100070002A0000000000250028002B0000000000DE
:1000800023002600290004040404040404040202DA
:100090000202020203030303030301020408102007
:1000A0004080010204081020010204081020000012
:1000B0000008000201000003040700000000000027
:1000C000000011241FBECFEFD8E0DEBFCDBF21E07E
:1000D000A0E0B1E001C01D92AA30B207E1F70E9492
:1000E00031010C9419020C940000833081F028F443
:1000F000813099F08230A9F008958730A9F08830D6
:10010000C9F08430B1F4809180008F7D03C080916C
:1001100080008F7780938000089584B58F7784BDA9
:10012000089584B58F7DFBCF8091B0008F77809349
:10013000B00008958091B0008F7DF9CFCF93DF9309
:10014000E8EBF0E08491E4EAF0E0D491E0E9F0E05B
:10015000C491CC23A1F081110E947500EC2FF0E036
:10016000EE0FFF1FE458FF4FA591B491EC91ED23E2
:1001700081E090E009F480E0DF91CF91089580E084
:1001800090E0FACF3FB7F894809106019091070173
:10019000A0910801B091090126B5A89B05C02F3F89
:1001A00019F00196A11DB11D3FBFBA2FA92F982F9D
:1001B0008827BC01CD01620F711D811D911D42E098
:1001C000660F771F881F991F4A95D1F708951F92D0
:1001D0000F920FB60F9211242F933F938F939F93FB
:1001E000AF93BF938091020190910301A09104010C
:1001F000B09105013091010123E0230F2D3758F50F
:100200000196A11DB11D20930101809302019093DD
:100210000301A0930401B093050180910601909120
:100220000701A0910801B09109010196A11DB11D1E
:100230008093060190930701A0930801B0930901F0
:10024000BF91AF919F918F913F912F910F900FBED2
:100250000F901F90189526E8230F0296A11DB11D3F
:10026000D2CF789484B5826084BD84B5816084BD2A
:1002700085B5826085BD85B5816085BD80916E0044
:10028000816080936E001092810080918100826075
:1002900080938100809181008160809381008091B2
:1002A00080008160809380008091B10084608093A1
:1002B000B1008091B00081608093B00080917A009D
:1002C000846080937A0080917A00826080937A00C3
:1002D00080917A00816080937A0080917A008068B2
:1002E00080937A001092C100E4EAF0E02491E0E902
:1002F000F0E084918823C1F090E0880F991FFC0101
:10030000E859FF4FC591D491FC01EE58FF4FA591DC
:10031000B4919FB7F8943881822F80958323888386
:10032000EC91E22BEC939FBFCFE9D0E0FE0124914A
:100330000BE810E0F8018491882399F090E0880F91
:10034000991FFC01E859FF4FA591B491FC01EE58AB
:10035000FF4F859194918FB7F8949C91292B2C9302
:100360008FBF23EB822E20E0922E30E0A32E30E0D0
:10037000B32E332433940E949E00892B09F04DC084
:1003800080910001811150C030920001F4018491EC
:10039000FE01F490F801D490DD20B1F0E09000016E
:1003A00081110E947500ED2DF0E0EE0FFF1FEE5859
:1003B000FF4FA591B4918FB7F8949C91E11037C08D
:1003C000F094F922FC928FBF0E949E00892BE1F3EA
:1003D0000E94C2002B013C018CE2C82EDD24D39484
:1003E000E12CF12C0E94C200641975098609970955
:1003F000683E734081059105A8F3F1E0CF1AD1085A
:10040000E108F10828EE420E23E0521E611C711C27
:10041000C114D104E104F10429F7A114B10409F4D1
:10042000AACF0E940000A7CF10920001AFCFF92AF7
:06043000C9CFF894FFCFD4
:00000001FF
