:100000000C945C000C946E000C946E000C946E00CA
:100010000C946E000C946E000C946E000C946E00A8
:100020000C946E000C946E000C946E000C946E0098
:100030000C946E000C946E000C946E000C946E0088
:100040000C94B8000C946E000C946E000C946E002E
:100050000C946E000C946E000C946E000C946E0068
:100060000C946E000C946E00000000002400270029
:100070002A0000000000250028002B0004040404CE
:100080000404040402020202020203030303030342
:10009000010204081020408001020408102001021F
:1000A00004081020000000080002010000030407FB
:1000B000000000000000000011241FBECFEFD8E0B8
:1000C000DEBFCDBF21E0A0E0B1E001C01D92A930AC
:1000D000B207E1F70E9402010C944C030C9400005B
:1000E000E1EBF0E02491EDE9F0E09491E9E8F0E053
:1000F000E491EE23C9F0222339F0233001F1A8F472
:10010000213019F1223029F1F0E0EE0FFF1FEE58F7
:10011000FF4FA591B4912FB7F894EC91811126C0AF
:1001200090959E239C932FBF08952730A9F02830E7
:10013000C9F0243049F7209180002F7D03C0209121
:1001400080002F7720938000DFCF24B52F7724BD48
:10015000DBCF24B52F7DFBCF2091B0002F772093EC
:10016000B000D2CF2091B0002F7DF9CF9E2BDACFF7
:100170001F920F920FB60F9211242F933F938F93DC
:100180009F93AF93BF938091050190910601A09139
:100190000701B09108013091040123E0230F2D37AE
:1001A00058F50196A11DB11D20930401809305010E
:1001B00090930601A0930701B0930801809100017C
:1001C00090910101A0910201B09103010196A11D3E
:1001D000B11D8093000190930101A0930201B0939F
:1001E0000301BF91AF919F918F913F912F910F90FC
:1001F0000FBE0F901F90189526E8230F0296A11DA1
:10020000B11DD2CF789484B5826084BD84B58160FD
:1002100084BD85B5826085BD85B5816085BD8091D1
:100220006E00816080936E00109281008091810049
:100230008260809381008091810081608093810041
:10024000809180008160809380008091B100846003
:100250008093B1008091B00081608093B000809164
:100260007A00846080937A0080917A008260809323
:100270007A0080917A00816080937A0080917A0080
:10028000806880937A001092C100EEE9F0E024913A
:10029000EAE8F0E084918823C1F090E0880F991F8C
:1002A000FC01E859FF4FC591D491FC01EE58FF4F76
:1002B000A591B4919FB7F8948881E22FE0958E23A1
:1002C00088838C91E823EC939FBFEDE9F0E02491C3
:1002D000E9E8F0E08491882399F090E0880F991F75
:1002E000FC01E859FF4FA591B491FC01EE58FF4F76
:1002F000859194918FB7F894EC91E22BEC938FBF9A
:1003000010E4C0E0D0E010937C0080917A0080641B
:1003100080937A0080917A0086FDFCCF609178000E
:1003200070917900072E000C880B990B0E942A020D
:1003300020E030E040EA50E40E94BB0220E030ECD4
:100340004FE754E40E94B60120E030E040E250E480
:100350000E94B602181644F481E00E9470002097B3
:1003600091F20E940000CFCF80E0F7CF0E94CA0137
:100370000C947C020E94750258F00E946E0240F0BC
:1003800029F45F3F29F00C94650251110C94B002DE
:100390000C946B020E948D0268F39923B1F35523EC
:1003A00091F3951B550BBB27AA2762177307840788
:1003B00038F09F5F5F4F220F331F441FAA1FA9F31E
:1003C00035D00E2E3AF0E0E832D091505040E6950C
:1003D000001CCAF72BD0FE2F29D0660F771F881F6D
:1003E000BB1F261737074807AB07B0E809F0BB0B60
:1003F000802DBF01FF2793585F4F3AF09E3F510574
:1004000078F00C9465020C94B0025F3FE4F3983EE0
:10041000D4F3869577956795B795F7959F5FC9F75C
:10042000880F911D9695879597F90895E1E0660FDD
:10043000771F881FBB1F621773078407BA0720F056
:10044000621B730B840BBA0BEE1F88F7E0950895BF
:10045000E89409C097FB3EF490958095709561955E
:100460007F4F8F4F9F4F9923A9F0F92F96E9BB2714
:100470009395F695879577956795B795F111F8CF90
:10048000FAF4BB0F11F460FF1BC06F5F7F4F8F4FFB
:100490009F4F16C0882311F096E911C0772321F0F1
:1004A0009EE8872F762F05C0662371F096E8862F89
:1004B00070E060E02AF09A95660F771F881FDAF7E0
:1004C000880F9695879597F9089597F99F6780E823
:1004D00070E060E008959FEF80EC089500240A9496
:1004E0001616170618060906089500240A9412160F
:1004F0001306140605060895092E0394000C11F442
:10050000882352F0BB0F40F4BF2B11F460FF04C0EE
:100510006F5F7F4F8F4F9F4F089557FD9058440F47
:10052000551F59F05F3F71F04795880F97FB991F52
:1005300061F09F3F79F0879508951216130614060F
:10054000551FF2CF4695F1DF08C01616170618069C
:10055000991FF1CF86957105610508940895E89477
:10056000BB2766277727CB0197F908950E942803B8
:1005700008F48FEF08950E94CE020C947C020E9432
:100580006E0238F00E94750220F0952311F00C9451
:1005900065020C946B0211240C94B0020E948D022F
:1005A00070F3959FC1F3950F50E0551F629FF001C6
:1005B000729FBB27F00DB11D639FAA27F00DB11DDF
:1005C000AA1F649F6627B00DA11D661F829F222768
:1005D000B00DA11D621F739FB00DA11D621F839FEF
:1005E000A00D611D221F749F3327A00D611D231FC5
:1005F000849F600D211D822F762F6A2F11249F5713
:1006000050409AF0F1F088234AF0EE0FFF1FBB1F15
:10061000661F771F881F91505040A9F79E3F5105D4
:1006200080F00C9465020C94B0025F3FE4F3983EB6
:10063000D4F3869577956795B795F795E7959F5F7E
:10064000C1F7FE2B880F911D9695879597F9089510
:10065000990F0008550FAA0BE0E8FEEF16161706D3
:10066000E807F907C0F012161306E407F50798F03B
:10067000621B730B840B950B39F40A2661F0232B54
:10068000242B252B21F408950A2609F4A140A695D0
:0C0690008FEF811D811D0895F894FFCFAD
:00000001FF
