:100000000C9461000C947E000C947E000C947E0095
:100010000C947E000C947E000C947E000C947E0068
:100020000C947E000C947E000C947E000C947E0058
:100030000C947E000C947E000C947E000C947E0048
:100040000C942D010C947E000C947E000C947E0088
:100050000C947E000C947E000C947E000C947E0028
:100060000C947E000C947E0000000000230026000B
:10007000290000000000240027002A0000000000E2
:10008000250028002B0004040404040404040202D4
:100090000202020203030303030301020408102007
:1000A0004080010204081020010204081020000012
:1000B0000008000201000003040700000000000027
:1000C000000011241FBECFEFD8E0DEBFCDBF11E08E
:1000D000A0E0B1E0E4E8F4E002C005900D92A230A7
:1000E000B107D9F721E0A2E0B1E001C01D92AB3029
:1000F000B207E1F70E9477010C9440020C940000D3
:10010000833081F028F4813099F08230A9F008958D
:100110008730A9F08830C9F08430B1F48091800034
:100120008F7D03C0809180008F7780938000089539
:1001300084B58F7784BD089584B58F7DFBCF809182
:10014000B0008F778093B00008958091B0008F7DCC
:10015000F9CF1F93CF93DF93282F30E0F901E255B9
:10016000FF4F8491F901E656FF4FD491F901EA5708
:10017000FF4FC491CC23A9F0162F81110E9480005B
:10018000EC2FF0E0EE0FFF1FE458FF4FA591B49164
:100190008FB7F894EC91111108C0D095DE23DC9351
:1001A0008FBFDF91CF911F910895DE2BF8CFCF93B2
:1001B000DF9390E0FC01E656FF4F24918A579F4F52
:1001C000FC0184918823D1F090E0880F991FFC01F5
:1001D000EE58FF4FA591B491FC01E458FF4FC59133
:1001E000D491623071F49FB7F8943C91822F80953E
:1001F00083238C93E8812E2B28839FBFDF91CF919F
:1002000008958FB7F894EC912E2B2C938FBFF6CFD7
:100210003FB7F8948091070190910801A0910901DE
:10022000B0910A0126B5A89B05C02F3F19F0019691
:10023000A11DB11D3FBFBA2FA92F982F8827BC0140
:10024000CD01620F711D811D911D42E0660F771F68
:10025000881F991F4A95D1F708951F920F920FB6E4
:100260000F9211242F933F938F939F93AF93BF933C
:100270008091030190910401A0910501B0910601C4
:100280003091020123E0230F2D3758F50196A11D6F
:10029000B11D209302018093030190930401A09368
:1002A0000501B09306018091070190910801A0918A
:1002B0000901B0910A010196A11DB11D80930701AA
:1002C00090930801A0930901B0930A01BF91AF91E7
:1002D0009F918F913F912F910F900FBE0F901F9084
:1002E000189526E8230F0296A11DB11DD2CF789450
:1002F00084B5826084BD84B5816084BD85B582602B
:1003000085BD85B5816085BD80916E0081608093DB
:100310006E00109281008091810082608093810044
:100320008091810081608093810080918000816054
:10033000809380008091B10084608093B1008091AF
:10034000B00081608093B00080917A0084608093D7
:100350007A0080917A00826080937A0080917A009E
:10036000816080937A0080917A00806880937A001F
:100370001092C10062E082E00E94D70061E088E054
:100380000E94D70061E089E00E94D70020EB822E16
:1003900020E0922ECCE9D0E008E810E0332433943A
:1003A00030E0A32E30E0B32EF4018491FE01F490EE
:1003B000F801E490EE2009F45AC081110E948000F7
:1003C000EE2DF0E0EE0FFF1FE859FF4FA591B4911D
:1003D0008C91F82231E020E009F430E0832F922F55
:1003E000F82FF1702F2E20910101222359F1892B32
:1003F00049F5809100018325809300010E94080146
:100400002B013C0182E3C82ED12CE12CF12C0E945F
:1004100008016419750986099709683E73408105CA
:100420009105A8F321E0C21AD108E108F10888EE8D
:10043000480E83E0581E611C711CC114D104E104F4
:10044000F10429F72092010180910001882391F0A5
:1004500061E088E00E94A90060E089E00E94A900B4
:10046000A114B10409F4A0CF0E9400009DCF90E038
:1004700080E0B6CF60E088E00E94A90061E0EDCFA7
:04048000F894FFCF1E
:02048400010174
:00000001FF
